:020000040800F2
:1000000018040020E11100085510000857100008DE
:10001000591000085B1000085D1000080000000087
:100020000000000000000000000000005F10000859
:10003000611000080000000063100008651000084F
:10004000FD1100080112000805120008091200083D
:100050000D120008111200081512000819120008EC
:100060001D1200082112000825120008291200089C
:100070002D1200083112000835120008391200084C
:100080003D120008411200084512000849120008FC
:100090004D120008511200085512000859120008AC
:1000A0005D1200086112000865120008691200085C
:1000B0006D1200087112000875120008791200080C
:1000C0007D120008811200088512000889120008BC
:1000D0008D1200089112000895120008991200086C
:1000E0009D120008A1120008A5120008A91200081C
:1000F000AD120008B1120008B5120008B9120008CC
:10010000BD120008C1120008C5120008C91200087B
:10011000CD120008D1120008D5120008D91200082B
:10012000DD120008E1120008E5120008E9120008DB
:10013000ED120008F1120008F5120008F91200088B
:10014000FD12000801130008051300080913000838
:100150000D130008111300081513000819130008E7
:100160001D13000821130008251300082913000897
:100170002D1300083113000835130008000000009B
:10018000391300083D13000810B5DFF89C33DFF881
:100190009C03DFF89C4390FBF1F051434FF4FA725B
:1001A000186091FBF2F1216020680028FCD14AF62A
:1001B000C871196010BDF8B500F014F900F007F926
:1001C00000F010F900F003F900F00CF900F0FFF86E
:1001D00040F2371400F00DF900F0F3F800F0EDF8FC
:1001E00000F004F900F0F0F800F0FCF800F0EFF88F
:1001F00000F0FFF800F0E5F800F0DFF800F0F6F8A6
:1002000000F0E2F84FF42F7200F0EEF84FF42F7088
:1002100000F09AF940F24B254FF4AF72294600F0F6
:10022000E5F800F0D4F84FF4AF72294600F0DEF89C
:1002300000F0CDF84FF4AF72294600F0D7F800F087
:10024000C6F840F26E25FA22294600F0CFF800F0F9
:10025000B8F800F0B2F800F0C9F800F0B5F840F2D4
:1002600071164FF4AF72314600F0C0F800F0AFF8ED
:1002700000F0BFF800F0A5F800F09FF800F0B6F825
:1002800000F0A2F84FF42F7200F0AEF84FF42F7088
:1002900000F05AF94FF4AF724FF4447100F0A6F831
:1002A00000F095F8FA2200F09FF800F08AF8642236
:1002B00000F09AF800F088F84FF4AF724FF44471F0
:1002C00000F094F800F083F8FA2240F2E32100F005
:1002D0008DF800F076F8642240F2BA2100F086F83A
:1002E00000F072F840F293276422394600F07EF85D
:1002F00000F06AF86422294600F078F800F064F80B
:100300004FF4E172394600F071F800F064F896227B
:1003100040F29F1100F06AF800F061F84FF4AF72FC
:1003200040F22A2100F062F800F051F8FA2240F27F
:100330000B2100F05BF800F044F8642240F2ED116C
:1003400000F054F800F040F800F037F800F04EF8F4
:1003500000F03AF864224FF4DC7100F047F800F046
:1003600033F84FF4E1724FF4E97100F03FF800F018
:1003700032F8962200F03EF800F031F84FF4AF72F8
:10038000314600F033F800F022F800F032F800F0C7
:1003900018F800F012F800F029F800F015F840F213
:1003A000EE24224600F020F8204600F0CDF8BDE80B
:1003B000F24041F2883000F0C7B864224FF4E9718E
:1003C0007047FA2000F0C0B8642000F0BDB84FF4C8
:1003D000AF7000F0B9B84FF4E17000F0B5B89620F6
:1003E00000F0B2B84FF4AF724FF4C4710520FFF7BC
:1003F000CBBEFA2221460520FFF7C6BE80B586B0E7
:1004000000F0B6F800F03AF801A8142100F0CAF89C
:10041000002000904748016841F004010160026833
:1004200002F0040200920022009900924FF4007141
:10043000036843F0010303600222006800F001003A
:10044000009000983C480191029200210391032200
:100450000591049201A900F0A9F8022102914FF43C
:10046000807003210190002204910392059201A95A
:10047000324800F09BF8FFF79EFEFCE780B592B093
:1004800006A8302100F08EF801A8142100F08AF8A7
:10049000002000902A48016841F08051016000214D
:1004A000006800F0805000900098264800910221DA
:1004B000026842F4804202600122006800F4804039
:1004C0000090009806910992102102220A910C9244
:1004D000002110220D910E924FF4B47104220F915D
:1004E0001092119206A800F051F902210291002207
:1004F00003920F204FF4A051019004914FF48052C9
:100500000592022101A800F0D3FA00224FF4C001A5
:10051000002000F053FB00224FF04041012000F08A
:100520004DFB13B000BD000014E000E040A5AE029A
:100530001000002030380240000802400000024055
:10054000403802400070004038B5044600F0B6FB69
:1005500014F1010F054602D004480178641800F038
:10056000ADFB401BA042FAD331BD00BF000000200C
:1005700080B50B48016841F400710160026842F4E3
:1005800080620260016841F480710160032000F024
:10059000A8FB002000F0EEFB00F00CFC002002BDE8
:1005A000003C0240002200F021BC00002DE9F84F81
:1005B0000D464FF000086A490F22012304462E68B9
:1005C00003FA08F000EA0609814540F0C0804FEACE
:1005D000480C032606FA0CF66FEA060E6E68012E2A
:1005E00018BF022E03D0112E18BF122E11D1A668EB
:1005F000EF680EEA060607FA0CF73E43A660666847
:1006000026EA00006E68C6F3001606FA08F63043C4
:100610006060E068AE680EEA000006FA0CF630434F
:10062000E0604FEA88006E68022E18BF122E12D1C9
:100630004FEAD80604EB860600F01C07D6F820A087
:1006400002FA07FB2AEA0B0AD5F810B00BFA07F7F3
:1006500047EA0A07376226680EEA06072E7906F08F
:10066000030606FA0CF63E4326606E68F6006ED569
:10067000002600964FEA980C0E68DFF8E8E046F492
:1006800080460E6000F00C000E6806F4804600966E
:10069000009E5EF82C7002FA00F627EA0606324F3A
:1006A000BC4208BF002722D0304FBC4208BF012700
:1006B0001DD02F4FBC4208BF022718D02D4FBC427F
:1006C00008BF032713D02C4FBC4208BF04270ED00D
:1006D0002A4FBC4208BF052709D0294FBC4208BF9A
:1006E000062704D0274FBC420CBF0727082707FA6C
:1006F00000F030434EF82C006FEA090C22480668DF
:100700000CEA060E6E68F70348BF49EA0E0EC0F801
:1007100000E046680CEA060E6E68B70348BF49EA77
:100720000E0EC0F804E086680CEA060E6E68F7024A
:1007300048BF49EA0E0EC0F808E0C6680CEA060E8B
:100740006E68B60248BF49EA0E0EC0F80CE008F128
:100750000108B8F10F0F7FF632AFBDE8F18F00004E
:1007600044380240083801400000024000040240C2
:1007700000080240000C0240001002400014024039
:1007800000180240001C0240003C01402DE9F843E3
:10079000040016D02078DFF80863C10713D5B068CD
:1007A00000F00C00042807D0B06800F00C00082806
:1007B0003ED1706841023BD53068810303D5606843
:1007C000002800F0FF802078B64F810719D5B06867
:1007D00010F00C0F07D0B06800F00C0008285CD1B6
:1007E0007068410259D43068810703D5E068012858
:1007F00040F0E8803168206921F0F80141EAC00149
:100800003160217808076CD56069A749002862D05B
:1008100001220A6000F052FA0546706F810700F16C
:10082000D38000F04BFA401B0228F6D9032034E1B4
:100830006068B0F5803F04D1306840F480303060AB
:1008400011E0B0F5A02F306806D140F48020306070
:10085000316841F4803105E020F480303060316847
:1008600021F480213160606858B100F027FA054614
:1008700030688103A7D400F021FA401B6528F7D324
:10088000D4E700F01BFA0546306881039BD500F0E1
:1008900015FA401B6528F7D3C8E7E06870B101215D
:1008A000396000F00BFA05463068810700F1B88026
:1008B00000F004FA401B0228F6D9B7E7386000F0D0
:1008C000FDF90546316888079BD500F0F7F9401B14
:1008D0000228F7D9AAE7086000F0F0F90546706F22
:1008E000810771D500F0EAF9401B0228F7D99DE78E
:1008F0000528306F06D140F004003067306F40F0BB
:10090000010005E0400840003067306F20F004002F
:10091000306741F28938A06868B100F0CFF98146AC
:10092000306F810700F1898000F0C8F9A0EB090061
:100930004045F5D37AE700F0C1F98146306F810771
:100940007BD500F0BBF9A0EB09004045F6D36DE77D
:1009500000F0B4F9401B022840F2828066E700F004
:10096000ADF9001B022840F293805FE70020386653
:1009700000F0A4F904463068810140F18D8000F058
:100980009DF9001B0228F6D950E701281AD0B0685B
:10099000E26900F48001914202BF00F03F01226A47
:1009A00091420FD147F6C071626A0140914202BF85
:1009B00000F44031A26A914202BF00F07060E16A27
:1009C000884269D0012068E0207841073AD5306C30
:1009D0000025C1000AD400950125316C41F08051F9
:1009E0003164306C00F0805000900098DFF8BC80DB
:1009F000D8F80000C1051BD4D8F8000040F480707E
:100A0000C8F8000000F05AF98146D8F80000C10586
:100A10000ED400F053F9A0EB09000228F5D905E740
:100A20003068216920F0F80040EAC1003060E8E653
:100A3000A06801287FF45CAF60E71DB1306C20F046
:100A400080503064A06938B3B16801F00C01082906
:100A50009BD002288AD10020386600F02FF9054685
:100A6000306881013FF574AFE269206A616A024330
:100A7000A06A400842EA8112401E42EA0042E06A4F
:100A800042EA006272600121396600F017F90446FB
:100A9000306881017FF563AF0020BDE8F28300BFBD
:100AA0000038024000004742800E4742007000407C
:100AB0002DE9F04104000F4678D0604E306800F018
:100AC0000F00B84202D200F073F86FD120685C4D7D
:100AD000810712D5400703D5A96841F4E051A96008
:100AE0002078010703D5A86840F46040A860A96891
:100AF000A06821F0F0010143A9602178C8074DD515
:100B00006068012802D129688A0305E0022818BF1D
:100B1000032803D129688A0103D447E029688A079A
:100B200044D5A968890840EA8100A86000F0C6F8A9
:100B30008046A868616800F00C00B0EB810F2DD0F2
:100B400000F0BCF8A0EB080041F289318842F0D3F4
:100B5000032021E02078410705D5AA68E06822F447
:100B6000E0520243AA602178080706D5A9682069E7
:100B700021F4604141EAC001A96000F06FF8AA6861
:100B80003049314BC2F30312895CC84018602F48CA
:100B9000006800F0EFF80020BDE8F081306800F058
:100BA0000F008742D6D200F003F8D3D00120F3E73C
:100BB0003770316801F00F01B942704770B586B0E7
:100BC0000C461546224EA8B900900222B16A41F0A7
:100BD0000101B1624FF48071B06A00F00100009031
:100BE00000981C4800F020F8316821F0EC610C43BB
:100BF0002C4316E0002000900222B16A41F004016B
:100C0000B1624FF40071B06A00F0040000900098E7
:100C1000114800F009F8306820F07840044344EAB5
:100C2000C504346006B070BD0191029203210491A5
:100C300000220392059201A9FFF7B8BC003C0240D4
:100C400000380240E41000080C00002008000020DA
:100C500008380240000002400008024030B5144C41
:100C6000606800F00C00042802D0082802D01DE0C3
:100C7000104830BD226820680023410202F03F0284
:100C800004D525680B49C5F3881003E020680A499C
:100C9000C0F38810A1FB000100F0C2F82168C1F385
:100CA0000141491C4900B0FBF1F030BD024830BDA4
:100CB0000438024040787D010024F4000148406877
:100CC000704700BF000000200901020002D4244840
:100CD00081547047234B02F00F021A4402F8041C9F
:100CE0007047214B19684FF6FF020002114000F4D3
:100CF000E06008431D4908431860704738B51A4B37
:100D00001C68C4F30223C3F10704052C28BF042484
:100D10001D1D072D34BF0023DB1E012505FA04F439
:100D2000641E2140994005FA03F35B1E1A401143EB
:100D3000BDE83440C8E710B5401EB0F1807F01D354
:100D4000012010BD0A4C60600F214FF0FF30FFF70B
:100D5000BBFF0021A16007202060002010BD000023
:100D600000E400E018ED00E00CED00E00000FA0502
:100D700010E000E038B50D4D0D4B2A7804464FF4D5
:100D80007A711868B1FBF2F2B0FBF2F0FFF7D3FF13
:100D900050B9102C08D2002221464FF0FF30FFF747
:100DA000ADFFAC60002032BD012032BD000000204C
:100DB0000C00002081B00020009000220A48416809
:100DC00041F480414160416801F480410091009903
:100DD0000092036843F080530360006800F0805085
:100DE0000090009801B070474038024000B500BF45
:100DF000130096469446103928BFA0E80C50FAD844
:100E00005FEA417C28BF0CC048BF40F8042BC907EB
:100E100028BF20F8022B48BF00F8012B00BD0000BE
:100E2000BBBBE1B1B2F5803F80F07E80022A1ED9C3
:100E30008C46B1FBF2F102FB11C31B0443EA1043E1
:100E4000B3FBF2FC02FB1C3380B240EA0343B3FB6A
:100E5000F2F002FB103240EA0C4000237047022AF5
:100E600005D98446B0FBF2F002FB10C270474AB1CC
:100E700005D100F0010249085FEA30007047002206
:100E80000023704700F0E4B80B00020000210020AE
:100E90007047904271EB030CF6D3B3F5803F2FD22D
:100EA000F0B5B3FA83F7B1FA81F4A7F10F0E3D1B49
:100EB0005340CEF1200602FA0EF2F3415340B5F151
:100EC0000F0746D80F3C2C444140C4F12006A040F7
:100ED000F1414140B1FBF3F603FB1611A2FB0645BD
:100EE000001BA94102D2761E8018594180EA0102F6
:100EF00021FA0EF362FA0EF200215A403046F0BD9C
:100F000030B4B1FBF3FC03FB1C11A2FB0C45001B2E
:100F1000A94103D2ACF1010C8018594130BC024602
:100F20000B46604600217047B2F1807F65D3F0B573
:100F3000B2FA82F7B1FA81F4C7F10F063D1B22FA2B
:100F400006F307F1110EF24120355A40B5F10F07B3
:100F5000B8D94140C4F12006A040F1414140B1FB65
:100F6000F3FC03FB1C11A2FB0C45001BA94103D29F
:100F7000BCF1010C801859410F2F12D30F3FC90348
:100F800041EA5041B1FBF3F603FB1611A2FB064503
:100F9000D4EBC030A94102D2761E8018594146EAEE
:100FA000CC3C07B34140C7F12006B840F141414075
:100FB000B1FBF3F603FB1611A2FB0645001BA9418A
:100FC00002D2761E8018594180EA010221FA0EF3FE
:100FD000C7F1200462FA0EF20CFA07F05A402CFA1C
:100FE00004F13043F0BD80EA010221FA0EF3002142
:100FF00062FA0EF260465A40F0BD8C46B1FBF2F147
:1010000002FB11C31B0243EA1063B3FBF2FC02FBB9
:101010001C331B024CEA002043EA1063B3FBF2FCD2
:1010200002FB1C331B024CEA002043EA1063B3FBB3
:10103000F2FC02FB1C331B024CEA002043EA106363
:10104000B3FBF2FC02FB1C324CEA00200023704789
:10105000704700007047FEE7FEE7FEE7FEE77047D7
:101060007047704770B51149114C0A68206822F02A
:10107000F80242F0800398B10E48056805F00306B7
:10108000012E05D0032E14BF1A4642F0780201E06B
:1010900042F088026D1C05602068401E206000E060
:1010A0001A460A60BDE8704000F006B800380240F9
:1010B00010000020140000200248416802788A18BD
:1010C00042607047000000200448054A016841F46E
:1010D000700101604FF000601060704788ED00E023
:1010E00008ED00E000000000000000000102030421
:1010F0000607080930B450F8041B79B10268436848
:1011000002440830DC0744BFA9F10104E31852F897
:10111000045B43F8045B091FF9D1ECE730BC70476E
:1011200010B5074979441831064C7C44163404E064
:101130000A68081D114488470146A142F8D110BD34
:101140002C0000003C0000004EF68851CEF2000159
:10115000086840F470000860BFF34F8FBFF36F8FD3
:101160004FF00070E1EE100A7047000089FFFFFFAA
:1011700018000000540000000000002000000000E3
:1011800000F00DF8002801D0FFF7CAFFAFF3008090
:101190000020AFF30080FFF731F900F002F80120E2
:1011A000704700F001B800000746384600F002F82A
:1011B000FBE7000080B5AFF30080024A1100182061
:1011C000ABBEFBE7260002000100000000000000AB
:1011D000100000000024F4000000000000000000E7
:1011E0000148804701480047C9100008F111000874
:1011F000AFF30080FFF7A8FFFFF7C2FFFFF7FEBFC6
:10120000FFF7FEBFFFF7FEBFFFF7FEBFFFF7FEBF12
:10121000FFF7FEBFFFF7FEBFFFF7FEBFFFF7FEBF02
:10122000FFF7FEBFFFF7FEBFFFF7FEBFFFF7FEBFF2
:10123000FFF7FEBFFFF7FEBFFFF7FEBFFFF7FEBFE2
:10124000FFF7FEBFFFF7FEBFFFF7FEBFFFF7FEBFD2
:10125000FFF7FEBFFFF7FEBFFFF7FEBFFFF7FEBFC2
:10126000FFF7FEBFFFF7FEBFFFF7FEBFFFF7FEBFB2
:10127000FFF7FEBFFFF7FEBFFFF7FEBFFFF7FEBFA2
:10128000FFF7FEBFFFF7FEBFFFF7FEBFFFF7FEBF92
:10129000FFF7FEBFFFF7FEBFFFF7FEBFFFF7FEBF82
:1012A000FFF7FEBFFFF7FEBFFFF7FEBFFFF7FEBF72
:1012B000FFF7FEBFFFF7FEBFFFF7FEBFFFF7FEBF62
:1012C000FFF7FEBFFFF7FEBFFFF7FEBFFFF7FEBF52
:1012D000FFF7FEBFFFF7FEBFFFF7FEBFFFF7FEBF42
:1012E000FFF7FEBFFFF7FEBFFFF7FEBFFFF7FEBF32
:1012F000FFF7FEBFFFF7FEBFFFF7FEBFFFF7FEBF22
:10130000FFF7FEBFFFF7FEBFFFF7FEBFFFF7FEBF11
:10131000FFF7FEBFFFF7FEBFFFF7FEBFFFF7FEBF01
:10132000FFF7FEBFFFF7FEBFFFF7FEBFFFF7FEBFF1
:10133000FFF7FEBFFFF7FEBFFFF7FEBFFFF7FEBFE1
:04000005080011F1ED
:00000001FF
